:020000040800F2
:10000000B8040020790200087D0200087F02000881
:100010008102000883020008850200080000000039
:10002000000000000000000000000000870200083F
:1000300089020008000000008B0200088D02000801
:10004000D30B00088F0200088F0200087B12000803
:100050008F0200088F02000821130008091400080D
:100060008F0200088F0200088F0200088F0200082C
:100070008F0200088F0200088F0200088F0200081C
:100080008F0200088F0200088F0200088F0200080C
:100090008F0200088F0200088F0200088F020008FC
:1000A0008F0200088F0200088F0200088F020008EC
:1000B0008F210008210C00083F0900088F0200086A
:1000C0008F0200088F0200088F0200088F020008CC
:1000D0008F020008550700088F0200088F020008F1
:1000E0008F0200088F0200088F02000800F002F85B
:1000F00000F0B0F80AA090E8000C82448344AAF112
:100100000107DA4501D100F0A5F8AFF2090EBAE80F
:100110000F0013F0010F18BFFB1A43F0010318473B
:1001200000440000204400000A444FF0000C10F886
:10013000013B13F0070408BF10F8014B1D1108BF65
:1001400010F8015B641E05D010F8016B641E01F805
:10015000016BF9D113F0080F1EBF10F8014BAD1C55
:100160000C1B09D16D1E58BF01F801CBFAD505E073
:1001700014F8016B01F8016B6D1EF9D59142D6D3CD
:10018000704700000023002400250026103A28BFF5
:1001900078C1FBD8520728BF30C148BF0B607047F9
:1001A0006E2902F0A787702902F0DA85662904F02B
:1001B000EB80652904F0E880672904F0E580612977
:1001C000AFF3008003681B0A28BF41F08001692952
:1001D00002F04885642902F04585752902F04285C0
:1001E0006F2903F0A380782902F0A685E92903F09E
:1001F0003B80E42903F03880F52903F03580EF29AE
:1002000003F0A080F82902F0A5850368DB0928BF68
:1002100041F08001632902F0AA87732902F0AF87B9
:10022000E32903F05183F32903F05683002070473C
:100230001FB503F0A7FB04000020002104F08EF896
:10024000401C60600020002104F072F8E0601FBDD7
:1002500010B510BD03F068FB1146FFF7E9FF00F091
:1002600025F803F045FC03B4FFF7F2FF03BC00F0F0
:1002700043FA000030BF000008480047FEE7FEE7F1
:10028000FEE7FEE7FEE7FEE7FEE7FEE7FEE7FEE746
:1002900003480449024A044B70470000ED0000087F
:1002A000B8020020B8040020B80200200024092071
:1002B00000F0C6F9482000F055F84FF4E13148202D
:1002C00000F0BCFA00F09EFB00F064FB01F06EF958
:1002D00001F0D0FA3CE01F48007800F08000802850
:1002E00028D11C480478007800F03F021A491B48C6
:1002F00002F027FE1748007800F03F01164802F090
:1003000065FE002013490870FF201449C91E0870BB
:10031000AA20487004F03F00887001F0FDFA0F48F1
:10032000C01E01F06AFA40210C48C01E02F04EFEC9
:1003300001F0A0FA0A4801F044FA48B10848C01C8C
:1003400000F0E1FA4021064802F040FE01F092FA86
:10035000C1E70000040000208C01002015020020ED
:10036000D20100204FF0E021096921F004014FF093
:10037000E0221161C21700EB5272D210224B1A70A8
:100380001946097801EB4102C2EBC1114FF6FF7229
:1003900002EAC1011D4A1180704701461B4A1288BA
:1003A0004A434FF0E0235A6100229A6101221A6108
:1003B00000BF4FF0E022106910F0010F02D010F4DE
:1003C000803FF6D000224FF0E0231A619A61704717
:1003D00001460D4A12784A434FF0E0235A61002249
:1003E0009A6101221A6100BF4FF0E022106910F0FB
:1003F000010F02D010F4803FF6D000224FF0E0232E
:100400001A619A617047000000000020020000207D
:10041000AC4A0A400243AC4B1A60704701460723BE
:1004200023EA01021202A84B1B1D18684FF6FF03B6
:100430001840A64B18431043A34B1B1D1860704770
:100440002DE9F0478046894614461D462046E117AF
:1004500004EB91714FEAA10AE11704EB9171891045
:10046000A4EB8101CFB2042000EBC700C7B228463D
:10047000FFF7D4FFC5F1040008FA00F60F20284169
:1004800000EA0900064306F00F06202C0CDA90481B
:1004900000684FF0010101FA04F140EA01004FF059
:1004A000E021C1F800010DE08A480068A4F12001B4
:1004B0004FF0010202FA01F240EA02004FF0E0219F
:1004C000C1F80401844850F82A0006FA07F140EA0E
:1004D0000100814941F82A00BDE8F08770B5044663
:1004E0000B46CE1701EB9676B010CE1701EB967641
:1004F000B610A1EB8606B606350E784B9B6943F025
:100500000103764EB3614FEAB63353F820300F261D
:10051000AE40B343724E46F82030334653F8203095
:1005200004FA05F633436E4E46F820306D4B1E68D4
:1005300001238B401E436B4B1E6012F0010F08D04D
:10054000684B0C331B6801268E403343654E0C36D6
:10055000336012F0020F08D0624B08331B6801268B
:100560008E4033435F4E0836336070BD00B50020C7
:100570005A490861C8601420486100208861C86138
:100580000846006840F00100086008464068564987
:1005900008405249486008460068544908404F499D
:1005A00008600846006820F480200860084640681B
:1005B00020F4FE0048600020886000214FF00060B9
:1005C000FFF726FF00BD10B53F480830006840F037
:1005D00004003D49083108604048C06940F080503F
:1005E0003E49C8614248406840F4807040494860D4
:1005F0000846006840F0040008600846006840F0C3
:1006000002000860FFF736FE10BD3048001D2E497D
:10061000091D0860704701464906304A926942F058
:1006200001022E4B9A612E4A083A526822F0E0628B
:100630002B4B083B5A601A4652680A435A6070476F
:1006400030B504460025FFF791FF2448006840F4C8
:1006500080302249086000BF20480068400CFBD071
:100660004FF480601D494860A01EC4B2084640682F
:1006700040EA844048600846406840F48030486062
:100680001C48006840F032001A49086013480068AE
:1006900040F080701149086000BF10480068400EAB
:1006A000FBD00E48406840F002000C49486005E06D
:1006B0000A484068C0F3870505F00305022DF7D10D
:1006C00030BD000080FFFF1F08ED00E00000FA05CC
:1006D00000E100E004E100E000E400E0001002407E
:1006E00008000140000401400000FFF8FFFFF6FE93
:1006F0000070004000200240014600BF704700BF6C
:100700009B4A128812F0400FFAD0C2B2984B1B1DC0
:100710001A8070479649091D088000BF94490988CE
:1007200011F0400FFAD0704758B10021914A118062
:1007300090492439098841F001018E4A243A1180F8
:1007400007E08C492439098821F00101894A243ABB
:100750001180704700B58648008810F0200F1FD028
:100760008348001D0088C3B2834800783C2811DA12
:100770000020804908808048007810B90120FFF7E8
:10078000D3FF7D4801780078401C7B4A10707B487D
:10079000435405E07848007840F0800076490870BE
:1007A00000BD70B505460C467548C06940F00400B0
:1007B0007349C8616F4808300580001F04806D4888
:1007C0001838008840F001006A49183908806948E3
:1007D0002438008840F0010066492439088002234B
:1007E0001E2203210120FFF72BFE70BD70B50446C9
:1007F0000E4615466248406940F001006049486174
:100800000520FFF7E5FDA660E56000202060206878
:1008100040F0100020602068206020682060206880
:1008200040F0800020602068206020682060206800
:1008300040F4805020602068206070BD70B505468F
:100840000C464F48806940F004004D4988610846D5
:10085000806940F4804088614A48006820F47F60E5
:10086000484908600846006840F40B600860444846
:10087000C06840F480404249C8600846C06820F41F
:100880008040C86040486843B0FBF4F03849083104
:100890000880081D008842F20C01084334490C31DD
:1008A00008808020324914310880384A3049091DB7
:1008B0003748FFF79BFF2E480C30008840F48070CB
:1008C0002B490C3108800846008840F02000088041
:1008D0000223252203210846FFF7B2FD41F61F41FE
:1008E0003220FFF75EFF002023490870FFF71CFF4E
:1008F00070BD026822F0010202604160026842F0AD
:100900000102026070470FB438B505A800901F4877
:10091000009A049902F036F90020009000BF1C48AC
:100920004438806C0028FAD1184802F0EBFAC4B2BF
:1009300021461748FFF7DDFF38BC5DF814FB00B512
:100940000C481438008810F0010F10D00A480078C5
:1009500040F080000849087006481438008820F0EC
:1009600001000449143908800020FFF7DDFE00BDB6
:100970000038014024080040040000208C010020C1
:10098000001002400408014040420F0050010020C6
:10099000440002401848806940F00400164988610C
:1009A0000846806940F0200088611448006820F003
:1009B0000F00124908600846006840F00300086014
:1009C0000E480830006840F480700C490831086017
:1009D0000B48006820F47060094908600846006808
:1009E00040F44070086006480C30006840F0040095
:1009F00003490C31086070470010024004080140B0
:100A0000001401404148806940F004003F4988617A
:100A10003F48006820F00F003D4908600846006824
:100A200040F008000860081D00683A49084038494D
:100A3000091D086008460068374908433449091D04
:100A4000086033480C30006840F4005030490C31E5
:100A500008600846006840F4004008602C48001D0B
:100A6000006820F00F002A49091D08600846006848
:100A700040F00800086026480C30006840F48070A0
:100A800023490C310860704710B50220FFF7C3FD01
:100A90002248007838B32248006830B12148006805
:100AA00018B12148006801281DD10A20FFF775FC04
:100AB00000201A4908701A48006820B90120FFF781
:100AC000AAFD012010BD1748006820B90120FFF7DA
:100AD000A2FD0220F6E714480068012811D1FFF7B3
:100AE0009AFD0320EEE70E480068012809D10D4861
:100AF0000068012805D10C48006810B90120074999
:100B000008700120FFF787FD0020DBE7001002409E
:100B100000080140FFFF0F0F000080800C00002044
:100B2000340121423C0121420001214245F255524B
:100B3000364B1A601A46506091604AF6AA221A6033
:100B40004CF6CC421A6070474AF6AA202F4908603A
:100B5000704770B506460C4615462D48C06940F4EE
:100B600000602B49C8612B48007830402949087043
:100B70002948006840EAC51027490860084600680F
:100B800040F400700860084600684FF68071084025
:100B9000214908600846006820430860081F006873
:100BA0001C49097841F0800108431B49091F08606E
:100BB0000223002203211846FFF742FC70BD1649AC
:100BC000091F096800F07F021143134A121F1160C8
:100BD000704710B51048006800F07F030E48001FF2
:100BE000006800F07F049C4203DA0A480078FFF7AF
:100BF000E6FF00200849091D08600848006808B998
:100C0000012000E000200549086010BD00300040D0
:100C1000001002400D000020042C00408881224278
:100C20004248008810F0010F07D04148006808B919
:100C3000012000E000203E4908603C48008820F088
:100C400001003A490880704770B505460C4639489E
:100C5000C06940F002003749C86134481C30058043
:100C6000001F04803148001F008840F001002F4918
:100C7000091F08800846008840F0400008802B4883
:100C80001038008840F001002849103908800223FC
:100C90001D2203210120FFF7D3FB70BD254AD26935
:100CA00042F00202234BDA61234A126822F00F025B
:100CB000214B1A601A46126842F004021A601A1F89
:100CC000126822F070421B1F1A601A46126842F026
:100CD00030421A60184A0832126842F08002164BFD
:100CE00008331A60114A1C321080121F11800F4AFB
:100CF0000832128842F4E0420C4B08331A801A463C
:100D0000128842F400621A80084A1032128842F0B7
:100D10001002064B10331A80DA13044B103B1A8072
:100D20001A46128842F001021A80704710040040EF
:100D3000888122420010024004080140F0B50346B9
:100D40000C461546642093FBF0F0C6B2642093FB7A
:100D5000F0F700FB1730C1B2132E02DD01F1640081
:100D6000C1B20846CF1701EB977701EBA702072026
:100D700092FBF0F700FB172082B25719601EDFF8D4
:100D800068C41CF80000384482B2CF1701EB977793
:100D9000BF10B1EB870703D1032C01DA501E82B2DA
:100DA000072092FBF0F700FB1720C0B2F0BD014610
:100DB000CA1701EB92729210B1EB820212D1642039
:100DC00091FBF0F200FB121050B94FF4C87091FB88
:100DD000F0F200FB121008B9012070470020FCE778
:100DE0000120FAE70020F8E770B50026002400256E
:100DF000FE4806883604001D00880644FC48B6FB01
:100E0000F0F4FC480088A0423AD0FA490C8040F245
:100E1000B2750EE02846FFF7CAFF30B1B4F5B77FD0
:100E200002D3A4F5B77402E006E0A4F26D14681CC6
:100E300085B2B4F5B67FEDD800BFEF4885800025B8
:100E400016E0ED498888FFF7B2FF30B1012D04D1DB
:100E50001D2C01D31D3C09E00CE0E848405DA04298
:100E600003D8E648405D241A00E003E0681C85B220
:100E70001C2CE6D200BF681CDF498871601CC87159
:100E8000DB48B6FBF0F100FB11644FF46160B4FB8A
:100E9000F0F0D94908704FF46160B4FBF0F100FB49
:100EA00011403C21B0FBF1F0D34948704FF4616030
:100EB000B4FBF0F100FB11403C21B0FBF1F201FB6F
:100EC0001200CD4988700B46DA7999799888FFF736
:100ED00035FFC9490872002070BD2DE9F04705466D
:100EE0000E4617469846DDE9089A002340F2B27094
:100EF000854203DB40F63300854202DD0120BDE878
:100F0000F08740F2B2740AE02046FFF750FF10B1BC
:100F1000BB48034401E0BB480344601C84B2AC42BC
:100F2000F2DB701EC6B2002410E0B448005D40F24F
:100F3000A321484303EBC0132846FFF738FF18B13D
:100F4000012C01D1AA480344601C84B2B442ECDBFA
:100F5000781E40F2A321484303EBC013C8EB4810AE
:100F6000C0EB082003EB0013C9EB091003EB80036F
:100F70005344A548C06940F08050A349C861084661
:100F8000C06940F00060C861A048006840F480700B
:100F90009E49086095481438008840F01000934935
:100FA000143908809149091D0B80180C091F08800D
:100FB0008E481438008820F010008C4914390880BD
:100FC00000BF8A481438008810F0200FF9D00020A4
:100FD00095E770B50346002409E013F8015B11F8AA
:100FE000016BB54201D0002070BD601CC4B29442B8
:100FF000F3DB0120F8E72DE9FE47002406E08448F2
:101000000068005D02A90855601CC4B2032CF6DB21
:1010100000240BE004EB44017E4A8818032202A955
:10102000FFF7D7FF00B103E0601CC4B20C2CF1DB6A
:1010300000BF601CC6B2764800680079202805D140
:101040007348006840793038C5B20BE070480068DA
:1010500041796F480068007930380A2202FB00109D
:101060003038C5B26A480068C07930384FF47A71B8
:10107000484367490968097A3039642202FB010153
:1010800063480068407A30380A2202FB0010604949
:101090000968897A0844303887B25F480068417827
:1010A0005D4800680078303802FB0010303800F0EE
:1010B000FF0A59480068017957480068C0783038FD
:1010C00002FB0010303800F0FF0953480068C17976
:1010D000514800688079303802FB0010303800F049
:1010E000FF0853462A4631463846CDE90098FFF7B7
:1010F000F4FEBDE8FE8710B5002448480088A0F53E
:10110000A04150396ED04048C06940F080503E49FF
:10111000C8610846C06940F00060C8613B4800688B
:1011200040F48070394908603748006A40F48030E4
:10113000354908620846006A20F480300862084693
:10114000006A40F00100086204E0601CC4B20A209A
:10115000FFF723F92C48006A10F0020F01D1FA2C96
:10116000F3DBFA2C01DB012010BD2748006A40F4B4
:101170008070254908620846006A40F40040086211
:1011800000BF1A481438008810F0200FF9D000BFB3
:1011900016481438008810F0080FF9D01348183892
:1011A000008840F0010011491839088000BF0F483D
:1011B0001438008810F0200FF9D00C48143800883B
:1011C00040F010000949143908800020091D0880EA
:1011D00047F6FF70091D0880FFF70DFF034814381C
:1011E00000881DE02BE000008C4300081828004018
:1011F0008051010010000020C80100209843000821
:101200000085E2018033E1010010024000700040DF
:1012100014000020A443000818000020046C0040C3
:1012200020F010002549088000BF2448008810F0F5
:10123000200FFAD045F250002149088013E000BF8A
:101240001E48008810F0080FFAD01C48001F0088C4
:1012500040F001001949091F088000BF17480088A5
:1012600010F0200FFAD00223032200210846FFF7D6
:10127000E7F8FFF7B9FD002076E700B50F480088D2
:1012800010F0010F01D0FFF7AFFD0C48008810F0FF
:10129000020F05D00948008820F0020007490880A5
:1012A0000648008840F6FA7108400449088000BFEB
:1012B0000248008810F0200FFAD000BD042800403A
:1012C000046C004010B52F48C06840F4FE702D49F2
:1012D000C860FFF778F910BD70B500250024002024
:1012E000294908601BE02948006818B1681CC5B28C
:1012F000002409E0601CC4B2032C05DD0120224952
:1013000008604FF0000070BD1E20FFF746F8642D06
:1013100005DB00201C4908604FF00100F3E7E2E71D
:1013200010B501201A490860FFF7D6FF08B1FFF792
:10133000C9FF10BD10B51348806940F00400114981
:1013400088610846806940F00100886111480068A2
:1013500020F00F000F4908600846006840F00800C0
:101360000860022200210846FFF7B8F8FFF7B4FF33
:1013700008B9FFF728F90223062219461846FFF795
:101380005FF810BD00100240A0012142000121427F
:10139000140401400008014010B54A48806940F03B
:1013A0000400484988614848006820F0F000464938
:1013B00008600846006840F08000086042480C3031
:1013C000006840F0020040490C31086001221146DB
:1013D0000020FFF783F80223072201211846FFF7B8
:1013E0002FF810BD10B5002408E0601CC4B2142012
:1013F000FEF7EEFFFA2C01D1204610BD33480068FD
:101400000028F2D12046F8E770B500240025002618
:1014100034E02E480068002830D0FFF7E3FF044690
:10142000FA2C00D12BE0C82C03DBFA2C01DA0125C1
:1014300017E0552C0ADBC82C08DA01202449087073
:1014400024480078401C2349087018E0322C03DB44
:10145000552C01DA012604E00A2C02DB322C00DADA
:1014600000265DB11C48006840001B490860084622
:10147000006830440860002016490870C9E700BFC2
:1014800002201649086070BD13480068010E12481A
:101490000068C0F3074200200D4B1870D043C0B263
:1014A00088420CD159B90C480088C0F307210A487A
:1014B0000278D043C0B2884201D10846704700206C
:1014C000FCE7000000100240000801400401214236
:1014D00021000020200000201C00002014040140F6
:1014E00010B5FE48806940F00800FC498861FC485E
:1014F0000068FC490840FA4908600846006840F462
:101500004E300860F6480830006840F4E050F44976
:101510000831086000F0B9FA022000F009FB10BDA4
:1015200070B505460C460020EF490860284600F0DB
:1015300085FA204600F082FA06460120EB49C1F800
:10154000B001304670BD2DE9F04107460D46164604
:101550000020E5490860384600F070FA002404E0F5
:10156000002000F06BFA2855641CB442F8DB01201F
:10157000DD490860BDE8F0812DE9F04107460C46E1
:1015800015460020D8490860384600F057FA002672
:1015900005E014F8010B00F051FA701CC6B2AE421F
:1015A000F7DB0120D0490860BDE8F08110B5FFF7F6
:1015B00097FF0120CE4908604FF00A00FEF7EDFECC
:1015C0000020CA49C1F8AC014FF4FA70FEF7E5FEFD
:1015D00000210320FFF7A4FF00210420FFF7A0FF54
:1015E00080218620FFF79CFF01218720FFF798FFCD
:1015F000D7218920FFF794FF6021E920FFF790FFB2
:1016000005218A20FFF78CFFEA218B20FFF788FF56
:10161000EA218C20FFF784FFF4218D20FFF780FF63
:101620002C21F020FFF77CFF40219D20FFF778FF61
:1016300016219C20FFF774FF8321A020FFF770FF85
:10164000C021A120FFF76CFF1321A220FFF768FF44
:10165000A921A320FFF764FF0021A420FFF760FF6A
:101660000321A520FFF75CFF1421AA20FFF758FFF4
:101670000921EE20FFF754FFD521EF20FFF750FF9F
:101680008C21B020FFF74CFFFF21B220FFF748FF6D
:101690004221B320FFF744FF1021B420FFF740FFA1
:1016A0002021B520FFF73CFF2D21B620FFF738FFA2
:1016B000D421B720FFF734FF0021B820FFF730FF17
:1016C0000021B920FFF72CFF4821BA20FFF728FF9F
:1016D0004121BB20FFF724FF4821BC20FFF720FF5A
:1016E0004121BD20FFF71CFF4021BE20FFF718FF5E
:1016F0004821BF20FFF714FF4121C020FFF710FF52
:101700004821C120FFF70CFF4121C220FFF708FF4D
:10171000FF21C320FFF704FFFF21C420FFF700FFD4
:10172000FF21C520FFF7FCFEFF21C620FFF7F8FED2
:101730000121ED20FFF7F4FE0021F920FFF7F0FE74
:101740000021FA20FFF7ECFE2B21F120FFF7E8FE45
:101750003021F220FFF7E4FE0021F320FFF7E0FE46
:101760000021F420FFF7DCFE5321F520FFF7D8FE1F
:101770006421F620FFF7D4FE0021F720FFF7D0FE0A
:1017800000218E20FFF7CCFE10BD10B5594800682F
:10179000A8B900210420FFF7C3FE57490870084686
:1017A000007800F08000802807D100212620FFF774
:1017B000B7FE52490870012010BD0020FCE7002050
:1017C000FAE710B504464B480068A0B90021032091
:1017D000FFF7A6FE484908700846007800F00200AE
:1017E000022806D1402221467F20FFF7ACFE0120CF
:1017F00010BD0020FCE70020FAE770B50446282160
:10180000B420FFF78DFE4021BE20FFF789FE402265
:101810002146FF20FFF7B0FE09218720FFF780FE59
:10182000002510E0681CC5B2962D09DB34A001F03C
:10183000BBF90025C820FEF7B0FDFFF7B7FE06E0B4
:101840000520FEF7AAFD2B4800680028EAD100BF5A
:101850002848006868B900210320FFF761FE264987
:1018600008700846007800F00400042801D1002028
:10187000087070BD10B501218720FFF751FE0520CB
:10188000FEF78BFD02218E20FFF74AFE0520FEF7B2
:1018900084FD00210820FFF743FE40F002042146AA
:1018A0008820FFF73DFE00210820FFF739FE00F0F9
:1018B000FD0421468820FFF733FE00210320FFF7B7
:1018C0002FFE00210420FFF72BFE02218520FFF7C9
:1018D00027FE05218720FFF723FE10BD00100240E0
:1018E000040C0140FF00F0FFB08121420080214242
:1018F000AC812142288121422300002024000020C5
:10190000B7A2CBCDCAA7B0DC2E2E2E5458204552FC
:10191000524F520A0000000010B501218720FFF746
:10192000FFFD0520FEF739FD01218E20FFF7F8FDB0
:101930000520FEF732FD00210820FFF7F1FD40F001
:10194000010421468820FFF7EBFD00210820FFF766
:10195000E7FD00F0FE0421468820FFF7E1FD0021AD
:101960000320FFF7DDFD04218520FFF7D9FD0520C9
:10197000FEF713FD10BDFFF719FE21A001F014F9C9
:10198000FFF778FF3BE02348006848B922A001F048
:101990000BF9FFF7C1FF2348FFF72FFFFFF76AFF9F
:1019A0002148FFF70EFF002829D040211FA001F099
:1019B000FBF8002405E01C49085DFEF7ABFE601C47
:1019C000C4B2402CF7DB0025002405E01648005D7A
:1019D0002844C5B2601CC4B23F2CF7DB124890F813
:1019E0003F00A84209D110480078412805D13C2089
:1019F000FEF7D3FCFFF73EFF01E0FFF73BFFC2E736
:101A000053493434333220B3F5CABCBBAFB3C9B980
:101A1000A60A000020012142B7A2CBCDCAFDBEDD3F
:101A20000A00000012020020D2010020CAD5B5BD74
:101A3000CAFDBEDD3A2564B8F60A00000246002160
:101A400007E0481C81B24FF6FE70814201DB0020A6
:101A500070474248008810F0020FF2D03F48001D46
:101A60000280002107E0481C81B24FF6FE708142DF
:101A700001DB0020ECE73948008810F0010FF2D0BC
:101A80003648001D0088C0B2E2E700B534488069DE
:101A900040F00800324988610846C06940F480403F
:101AA000C86130480068C0F313002E49086008463A
:101AB00000682D4908432B4908602A48083000680F
:101AC00040F46040274908310860244808380088FD
:101AD0002249083908800846008840F400700880D0
:101AE0000846008840F4807008800846008840F06E
:101AF000040008800846008808800846008840F0F6
:101B0000020008800846008840F00100088008466E
:101B1000008840F0180008800846008808800846C1
:101B2000008840F040000880FF20FFF787FF00BDDD
:101B300000F007000949083909884FF6C7721140BB
:101B4000064A083A11801146098841EAC00111800D
:101B50001146098841F04001118070470838004063
:101B600000100240040C01400000B0BB10B58CB066
:101B700004461E230BAA03A9204600F00BFE00908A
:101B8000009810B101200CB010BD9DF82C00044449
:101B900000200B900EE05E489DF82C2050F822109B
:101BA00003A800F05FFD00B908E09DF82C00401C80
:101BB000C0B20B909DF82C000828ECDB00BF9DF80C
:101BC0002C00072879D2DFE800F00405395B8BA2EE
:101BD000A10000BF4FA000F0E7FF4FA000F0E4FF1E
:101BE0005DA000F0E1FF6CA000F0DEFF7AA000F045
:101BF000DBFF89A000F0D8FF97A000F0D5FFA4A0DC
:101C000000F0D2FFA9A000F0CFFFAEA000F0CCFF03
:101C1000B2A000F0C9FFB7A000F0C6FFBBA000F063
:101C2000C3FFC1A000F0C0FFCCA000F0BDFFD8A052
:101C300000F0BAFFE3A000F0B7FFA5E235A000F086
:101C4000B3FFF0A000F0B0FF00200B900EE0FD48C5
:101C500000689DF82C2000EBC2004168FAA000F05B
:101C6000A3FF9DF82C00401CC0B20B90F548007DEE
:101C70009DF82C108842EADC26A000F095FF83E254
:101C800024A000F091FFF2A000F08EFF00200B9046
:101C90001CE0EC4909689DF82C2001EBC20101AB66
:101CA00002AA486803A900F09BFDE64800689DF879
:101CB0002C1050F8312003A900E063E2F4A000F0FA
:101CC00073FF9DF82C00401CC0B20B90DD48007DD6
:101CD0009DF82C108842DCDC0EA000F065FF53E27A
:101CE0000CA000F061FF0BAA03A9204600F054FEEF
:101CF0009DF82C0040B9694603A800F0E6FC0B9063
:101D00009DF82C0008B9CDE1DEE1D0E10DE2E1E182
:101D10002C0000200D0A00002D2D2D2D2D2D2D2DF8
:101D20002D2D2D2D2D2D2D2D2D2D2D2D2D2D2D2DE3
:101D300055534D4152542056322E382D2D2D2D2DD8
:101D40002D2D2D2D2D2D2D2D2D2D2D2D2D2D2D2DC3
:101D50002D2D2D200D0A00002020202055534D410F
:101D60005254CAC7D3C9414C49454E54454BBFAAEA
:101D7000B7A2B5C4D2BBB8F6C1E9C7C9B5C4B4AE41
:101D8000BFDAB5F7CAD4BBA5BDBBD7E9BCFE2CCD25
:101D9000A8B9FD200D0A0000CBFC2CC4E3BFC9D2BA
:101DA000D4CDA8B9FDB4AEBFDAD6FACAD6B5F7D34A
:101DB000C3B3CCD0F2C0EFC3E6B5C4C8CEBACEBA76
:101DC000AFCAFD2CB2A2D6B4D0D02ED2F2B4CB2C56
:101DD000C4E3BFC90D0A0000D2D4CBE6D2E2B8FCFE
:101DE000B8C4BAAFCAFDB5C4CAE4C8EBB2CECAFD26
:101DF00028D6A7B3D6CAFDD7D62831302F3136BD65
:101E0000F8D6C629A1A2D7D6B7FBB4AEA1A2BAAF65
:101E1000CAFDC8EB0D0A0000BFDAB5D8D6B7B5C801
:101E2000D7F7CEAAB2CECAFD292CB5A5B8F6BAAF5F
:101E3000CAFDD7EEB6E0D6A7B3D63130B8F6CAE4BD
:101E4000C8EBB2CECAFD2CB2A2D6A7B3D6BAAFCADF
:101E5000FDB7B5200D0A0000BBD8D6B5CFD4CABE99
:101E60002ED0C2D4F6B2CECAFDCFD4CABEBDF8D6EB
:101E7000C6C9E8D6C3B9A6C4DC2CD0C2D4F6BDF816
:101E8000D6C6D7AABBBBB9A6C4DC2E0D0A0000007B
:101E9000BCBCCAF5D6A7B3D63A7777772E6F7065F4
:101EA0006E6564762E636F6D0D0A000055534D41CB
:101EB0005254D3D036B8F6CFB5CDB3C3FCC1EE3A49
:101EC0000D0A00003F3A20202020BBF1C8A1B0EF4E
:101ED000D6FAD0C5CFA20D0A0000000068656C706C
:101EE0003A20BBF1C8A1B0EFD6FAD0C5CFA20D0AF7
:101EF000000000006C6973743A20BFC9D3C3B5C435
:101F0000BAAFCAFDC1D0B1ED0D0A0A0069643A202A
:101F10002020BFC9D3C3BAAFCAFDB5C44944C1D09C
:101F2000B1ED0D0A0A0000006865783A2020B2CEB3
:101F3000CAFD3136BDF8D6C6CFD4CABE2CBAF3B866
:101F4000FABFD5B8F12BCAFDD7D6BCB4D6B4D0D021
:101F5000BDF8D6C6D7AABBBB0D0A0A006465633AB2
:101F60002020B2CECAFD3130BDF8D6C6CFD4CABE0D
:101F70002CBAF3B8FABFD5B8F12BCAFDD7D6BCB48A
:101F8000D6B4D0D0BDF8D6C6D7AABBBB0D0A0A00BE
:101F9000C7EBB0B4D5D5B3CCD0F2B1E0D0B4B8F182
:101FA000CABDCAE4C8EBBAAFCAFDC3FBBCB0B2CE6F
:101FB000CAFDB2A2D2D4BBD8B3B5BCFCBDE1CAF84D
:101FC0002E0D0A002D2D2D2D2D2D2D2D2D2D2D2DB0
:101FD0002D2D2D2D2D2D2D2D2D2D2D2D2D2D414CFE
:101FE00049454E54454B2D2D2D2D2D2D2D2D2D2D6F
:101FF0002D2D2D2D2D2D2D2D2D2D2D2D2D2D2D201E
:102000000D0A00002D2D2D2D2D2D2D2D2D2D2D2D9D
:102010002D2D2D2D2D2D2D2D2D2D2D2D2DBAAFCA44
:10202000FDC7E5B5A52D2D2D2D2D2D2D2D2D2D2DBE
:102030002D2D2D2D2D2D2D2D2D2D2D2D2D2D2D2DD0
:10204000200D0A006400002025730D0A0000000026
:102050002D2D2D2D2D2D2D2D2D2D2D2D2D2D2D2DB0
:102060002D2D2D2D2D2D2D2D2DBAAFCAFD204944FE
:10207000202D2D2D2D2D2D2D2D2D2D2D2D2D2D2D9D
:102080002D2D2D2D2D2D2D2D2D2D2D2D200D0A00FD
:1020900025732069642069733A0D0A305825303859
:1020A000580D0A00F6A0009900F07EFD0EE09DF8A4
:1020B0002C00042801D0022065E5F4A000F074FD96
:1020C0000120F749C87501E002205CE5EEA000F0B0
:1020D0006BFD59E0ECA000F067FD0BAA03A92046B8
:1020E00000F05AFC9DF82C00C8B9694603A800F01E
:1020F000ECFA0B909DF82C0020B9EAA0009900F0B2
:1021000053FD0EE09DF82C00042801D002203AE592
:10211000E7A000F049FD0020E149C87501E0022078
:1021200031E5D9A000F040FD2EE0D7A000F03CFD45
:102130000BAA03A9204600F02FFC9DF82C00D8B96B
:10214000694603A800F0C1FA0B909DF82C0088B9ED
:10215000D348C07D012806D1009801460268D9A065
:1021600000F022FD0AE0009801460268D9A000F0C4
:102170001BFD03E0022006E5022004E5C2A000F0FA
:1021800013FD01E00120FEE400BF0020FBE410B5D8
:102190004FF08040008A10F0010F02D0C04908695A
:1021A00080474FF08040008A20F001004FF08041CE
:1021B000088210BD70B505460C46C948C06940F09C
:1021C0000100C749C861880485850485808940F07D
:1021D0000100890488810846808940F04000888198
:1021E0000846008840F00100088002231C220321D9
:1021F0000846FEF725F970BD10B5044604EBC4008F
:1022000000EB04100122C2EB800081B24FF47A701F
:10221000FFF7D0FF0120A249C87510BD30B595B0B9
:10222000054613AB12AA09A9284600F0D9FA0446BC
:1022300014B1204615B030BD0020149026E0984916
:1022400009689DF8502001EBC20113AB11AA486840
:1022500001A900F0C5FA04460CB12046EAE709A935
:1022600001A800F0FFF960B99DF844009DF84810FE
:10227000884201DD0220DDE79DF85000884988751D
:102280000AE09DF85000401CC0B214908448007DC4
:102290009DF850108842D2DC00BF8148007D9DF837
:1022A0005010884201D10420C4E714A9284600F048
:1022B000DEFB04460CB12046BCE79DF8500078498F
:1022C00048750020B6E7F0B59BB07548847D007D69
:1022D000A04201DC1BB0F0BD7149096801EBC401EB
:1022E00007AB08AA486809A900F07AFA09A97DA0F5
:1022F00000F05AFC002644E06948018B0120B04000
:1023000001421BD0222179A000F04EFC304600F0A3
:10231000A1FB634924314718394675A000F044FCFD
:10232000222172A000F040FC304600F093FB5C4993
:102330002431084411A941F8260018E0304600F085
:1023400089FB57492431085811A941F826005448FF
:10235000C07D30B911A850F8261066A000F024FC0A
:1023600005E011A850F8261063A000F01DFC9DF8B0
:102370002000401EB04202D061A000F015FC701C8D
:10238000C6B29DF820008642B6DB5EA000F00CFCD1
:102390004348407D0B280DD2DFE800F0060D151EE6
:1023A00027323F4E5FB6CB003D49096851F83400F3
:1023B00080470546D4E03A4A126852F83410119822
:1023C00088470546CCE0364B1B6853F83420DDE9DE
:1023D000110190470546C3E0314F3F6857F834304C
:1023E00011A807C898470546BAE0DFF8B4C0DCF882
:1023F00000C05CF8347011A80FC8B8470546AFE0BC
:102400001598DFF89CC00090DCF800C05CF83470D0
:1024100011A80FC8B8470546A2E0DDE91501DFF8AD
:1024200080C0CDE90001DCF800C05CF8347011A870
:102430000FC8B847054693E0DDE915121798DFF895
:1024400060C0CDE900120290DCF800C05CF8347086
:1024500011A80FC8B847054682E0DDE91523DDE97C
:102460001710DFF83CC0CDE90023CDE90210DCF8FD
:1024700000C05CF8347011A80FC8B84705466FE07B
:102480004845583A305825580D0A00003136BDF8F5
:10249000D6C6B2CECAFDCFD4CABE210D0A000000F6
:1024A000640000204445433A256C750D0A00000085
:1024B0003130BDF8D6C6B2CECAFDCFD4CABE210DCA
:1024C0000A0000002A2830582558293D3058255840
:1024D0000D0A00002A282564293D25640D0A000004
:1024E000001002400D0A257328000000256300003B
:1024F00025730000256C7500305825580000000039
:102500002C00000029000000DDE91623DDE9181089
:10251000CDE90123CDE903101598DFF8F0C0009054
:10252000DCF800C05CF8347011A80FC8B847054645
:1025300016E0DDE9183217991A98CDE903320291B5
:102540000590DDE91501DFF8C4C0CDE90001DCF834
:1025500000C05CF8347011A80FC8B847054600BF2A
:1025600000BF9DF81C0001280CD12848C07D20B96F
:10257000294627A000F018FB07E0294626A000F016
:1025800013FB02E023A000F00FFB00BFA2E670B532
:102590000020002833D023480578002022494855E0
:1025A0001A4881682048884704461CB91749C868FA
:1025B000804721E01C48FFF7D9FA0546012D00D0DD
:1025C0002C46CCB1012C06D0022C08D0032C0AD00A
:1025D000042C10D10BE015A000F0E6FA0BE016A0D9
:1025E00000F0E2FA07E017A000F0DEFA03E018A01E
:1025F00000F0DAFA00BF00BF00200A49087070BD81
:1026000001460868704701607047000064000020C0
:102610003D256C753B0D0A003D305825583B0D0A91
:1026200000000000040000208C010020BAAFCAFDA9
:10263000B4EDCEF3210D0A00B2CECAFDB4EDCEF357
:10264000210D0A00B2CECAFDCCABB6E0210D0A00C6
:10265000CEB4D5D2B5BDC6A5C5E4B5C4BAAFCAFD22
:10266000210D0A0002460AE010780B78984201D04A
:1026700001207047107800B902E0521C491CF3E7B2
:1026800000BF0020F5E706E002780A70027802B980
:1026900002E0401C491CF7E700BF704701460020DC
:1026A00005E00A7802B903E0421CD0B2491CF8E701
:1026B00000BF704710B50246012000E050430B00F8
:1026C000A1F10104E1B2F9D110BD2DE9F0430746B3
:1026D0000E4600254FF00A083C46002030601FE0FF
:1026E0002078392802DC207830280ADA2078462839
:1026F00002DC2078412804DA2078582809D1012DFD
:1027000007D12078412801DB4FF01008681CC5B2C2
:1027100005E0207800B904E00120BDE8F083641CE6
:10272000DEE700BF3C46B8F1100F0FD1032D01DAF0
:102730000220F2E72078302806D16078582803D1AB
:10274000A41CA81EC5B204E00320E6E70DB90420CE
:10275000E3E71BE00DB1681EC5B22078392806DC1E
:102760002078302803DB2078A0F1300902E02078BF
:10277000A0F1370929464046FFF79CFF316809FB65
:1027800000103060641C207800B900E0E2E700BF70
:102790000020C2E710B50446002010700BE020783E
:1027A0000870641C491C1078401C10701078984206
:1027B00001DB012010BD2078202802D020780028DD
:1027C000EDD10020087000BFF4E70146491C00E08D
:1027D000491C0878202801D10029F9D108787047D0
:1027E0002DE9FF4F85B080468946002700200490E0
:1027F0000390012002904FF0000B002544461DE09D
:102800002078202816D005F07F00052812DA0DB9AF
:1028100045F0800505F07F00042803D120782A28A0
:1028200000D00EE0207805F07F010DF80100681C53
:10283000C5B202E0852D00D103E0641C2078002899
:10284000DED100BF8DB1002005F07F010DF8010041
:10285000C8A16846FFF706FF18B900210898017063
:1028600002E001210898017000254FF0000A44465B
:1028700014E0641C0AF1010000F0FF0A207820280F
:1028800002D020782A2809D12046FFF79EFF06466D
:10289000282E03D02A2E01D0CDF810A02078282889
:1028A00002D020780028E4D14446049810B104985E
:1028B000401C04444FF0000A002654E0207810B970
:1028C0004FF0010A50E02078282803D116B9781C6F
:1028D000C7B213E02078292808D13EB917B1781E75
:1028E000C7B201E04FF0010A47B93DE02078222845
:1028F00004D10EB9012000E00020064647B9207837
:1029000020282FD0207889F8000009F1010929E05A
:1029100020782C2804D101200290681CC5B214E054
:102920002078202811D0207828280ED04DB9BBF16E
:10293000050F06DA20780DF80B000BF1010000F00E
:10294000FF0B0298401CC0B20290012F0AD10298DE
:10295000022807D10298401CC0B202900398401C84
:10296000C0B20390641CA9E700BF0398012809D1F5
:1029700000200DF80B007FA16846FFF773FE08B931
:1029800000200390079903980870002089F8000040
:10299000504609B0BDE8F08FF0B50346154600205B
:1029A0000022002600244FE01F782C2F01D104B90B
:1029B00001221F78292F01D01F780FB904B944E0F4
:1029C000002E34D11F78302F02DB1F78392F11DD14
:1029D0001F78612F02DB1F78662F0BDD1F78412FD8
:1029E00002DB1F78462F05DD1F78582F02D01F7895
:1029F000782F0CD102B128E01F78612F03DB1F78FC
:102A0000203F0F7001E01F780F70491C19E01F78FC
:102A1000222F04D102B118E00126012411E01F7811
:102A2000202F0ED01F782C2F0BD0FF260DE01F7803
:102A3000222F00D1002402B107E014B11F780F70DB
:102A4000491C471CF8B25B1CAEE700BF00270F70A3
:102A50002E70F0BD02460020002105E0474B5B5C74
:102A60000344D8B24B1CD9B29142F7DB70472DE931
:102A7000F043B5B005460F460024002604E00021CF
:102A80003E488155701CC6B20A2EF8DB06E06D1C6C
:102A9000287818B9012035B0BDE8F08328782828B7
:102AA000F5D16D1C61E034AA69462846FFF774FF32
:102AB000064635449DF8D00020B1012827D0FF28D4
:102AC0004CD149E09DF8000000B333A96846FFF7F8
:102AD000FCFD06460EB10220DDE72046FFF7BAFFF7
:102AE00026490A31339A0A50A1F12400008B0121B2
:102AF000A140884321491A39088304211F48015500
:102B0000601CC4B20A2C01DD0320C4E726E068463D
:102B1000FFF7C4FD401C00F0FF082046FFF79AFFB6
:102B200016490A3100EB010949466846FFF7ABFD3B
:102B300012481A38018B0120A040014388B20F4986
:102B40001A3908830D4800F80480601CC4B20A2CAE
:102B500001DD03209FE701E002209CE700BF287809
:102B6000292801D0287800B900E09CE700BF3C701C
:102B7000002090E7766F6964000000007E0000206E
:102B8000704700001CB50C46064B7B44694600901C
:102B9000204600F0CAFA04460020694600F0D8FA40
:102BA00020461CBDC30500000FB4044910B503AA9C
:102BB000029800F0E9FA10BC5DF814FB0800002050
:102BC00070B5044685690068C10601D5302600E06D
:102BD0002026C00708D070BDD4E9012130469047B7
:102BE000206A00F1010020626D1EF5D570BD70B540
:102BF000044685690078C00708D170BDD4E9012179
:102C000020209047206A00F1010020626D1EF5D55A
:102C100070BD70B50C460546012A05D0287880069F
:102C200000D5EA69002302E0012305E05B1C934222
:102C300002D2E05C0028F9D1A869E618C01AA861A0
:102C4000286A184428622846FFF7BAFF04E0D5E94D
:102C5000012114F8010B9047B442F8D32846FFF73E
:102C6000C6FF70BD2DE9F0410646002410687529A5
:102C7000314616A511D000F0CFF9002803DAC0F1D3
:102C8000000013A507E031688A0701D511A502E00D
:102C9000490704D510A5012401E000F0C6F9002180
:102CA0000A2306F1240707E0B0FBF3F203FB12004E
:102CB000303078541046491C0028F5D123462A4666
:102CC0003046BDE8F04100F0B9B900000000000056
:102CD0002D0000002B00000020000000F0B40D4685
:102CE0000188090502D5234C7C4402E0214C7C4438
:102CF0000E34002100F124060BE002F00F074FEA2A
:102D00001212E75D42EA03724FEA1313775401F19E
:102D1000010152EA0307F0D102780023120704D51B
:102D2000702D06D009B1113402232246F0BC00F008
:102D300085B910340123F8E770B504460D462146E5
:102D4000106800F072F9024629462046BDE870403E
:102D50000023C3E7D21D22F00703D3E90023BDE718
:102D60000368126843F0200303600823C361002353
:102D7000B4E70000DC1600002DE9F05F8946044648
:102D80004FF0000ADFF878B1FB44C0F820A02046DD
:102D9000E1688847002875D0252806D0D4E90121AC
:102DA0009047206A401C2062F1E700265F462046DB
:102DB000E16888472028054608DB312D06D207EB5D
:102DC000050010F8200C08B10643F0E7B00701D564
:102DD00026F00406C4F81CA00027C4F818A02A2D69
:102DE00009D0284601F09DFA38B304EB8708303D3E
:102DF000C8F8185019E059F8041B204604EB870264
:102E00009161E1688847012F054618D1E0690028E3
:102E100020DA26F020061DE0D8F8180000EB80002C
:102E200005EB40003038C8F818002046E1688847B4
:102E3000054601F076FA0028EED1012F0AD02E2D9A
:102E400008D12046E16888477F1C0546022F46F0DE
:102E50002006C4DBA069002803DA404246F00106E0
:102E6000A061F00701D026F010066C2D0BD0682D64
:102E700009D04C2D39D06A2D35D0742D35D07A2D0E
:102E800033D016E038E0E1682F4620468847B84244
:102E9000054609D16C2F26D04FF48060E1680643C7
:102EA00020468847054604E06C2F1AD04FF4807006
:102EB00006430DB3A5F14100192802D8203546F488
:102EC00000664A462946204626604E46FDF768F9C8
:102ED00080B101280BD0F61D26F0070000F108098B
:102EE00055E74020E4E78020D8E70020D6E706F148
:102EF00004094CE7284651E7206ABDE8F09F00002E
:102F00006416000010B5431C02E010F8011B71B1FB
:102F10008107FAD14FF0013202C88C1A8C4314EAAF
:102F2000C211F9D0C01A0A0603D0C01E10BDC01AC3
:102F300010BD0A0401D0801E10BD0902FCD0401E45
:102F400010BD032A40F2308010F0030C00F0158011
:102F500011F8013BBCF1020F624498BF11F801CB9C
:102F600000F8013B38BF11F8013BA2F1040298BF01
:102F700000F801CB38BF00F8013B11F0030300F06B
:102F8000EB81083AC0F0088051F8043B083A51F848
:102F900004CBA0E80810F5E7121D5CBF51F8043B14
:102FA00040F8043BAFF30080D20724BF11F8013B87
:102FB00011F801CB48BF11F8012B24BF00F8013BE9
:102FC00000F801CB48BF00F8012B70474FF000021A
:102FD0000429C0F0128010F0030C00F0F181CCF154
:102FE000040CBCF1020F18BF00F8012BA8BF20F899
:102FF000022BA1EB0C0100F0E3B95FEAC17C24BF16
:1030000000F8012B00F8012B48BF00F8012B704796
:10301000704770477047704709684A0501D540B24C
:103020007047C905FCD500B2704709684A0501D54B
:10303000C0B27047C905FCD580B270472DE9F04792
:103040000D4699469246044600F124080168880618
:1030500004D5E06921F01001216000E00120A842C0
:1030600002DDA0EB050700E00027A16907EB0502E0
:1030700002EB0900A1EB0000A0612078C00602D499
:103080002046FFF79DFD002608E0D4E901211AF84B
:1030900006009047206A401C761C20624E45F4DBF7
:1030A0002078C0060AD52046FFF78AFD06E0D4E95D
:1030B000012130209047206A401C2062381EA7F171
:1030C0000107F4DC07E0D4E9012118F80500904776
:1030D000206A401C2062281EA5F10105F3DC204671
:1030E000FFF785FD2078000602D50220BDE8F087B5
:1030F0000120FBE711680268006A530501D50870DA
:103100000BE0D30501D5088007E0130603D5C217ED
:10311000C1E9000201E0520608600120704700008A
:1031200001694A1C02610878704700B58FB0CDE98B
:1031300001310021059105497944CDE9031011467B
:103140006846FFF719FE0FB000BD0000E5FFFFFF66
:103150000A6802F8010B0A60704710B5436913B1A1
:10316000AFF3008001E0FFF754FD012010BD12789D
:1031700000F124010A7000224A700122EDE7116873
:103180004FF0FF32E9E70000074B70B50D467B4476
:10319000FFF7CBFF0446284600F0A2FB10B14FF02A
:1031A000FF3070BD204670BD6DD5FFFF2DE9FF5F7C
:1031B00015468A460446DFF8AC80F8440027D8E973
:1031C00000103E46CDE9001011E03AF816106A46AC
:1031D00002A800F089FB411C07D02178890603D59D
:1031E000E269391891420ED8074406F101062078A9
:1031F000800602D5E069B84205DDAE42E5DB3AF86B
:1032000016000028E1D1A069C01BA0612046FFF78D
:10321000D7FCD8E90010CDE90010002016E03AF8FC
:1032200018106A4602A800F05FFB8146401C0BD0D4
:1032300000250DF1080B05E0D4E901211BF805007C
:1032400090476D1C4D45F7D308F10100B042804610
:10325000E5DB206A384420622046FFF7C8FCBDE861
:10326000FF9F0000461200002DE9F0418046D21D6C
:1032700022F007020025D2E90002F52914A612D097
:10328000002A06DA0023D0EB030063EB020211A64A
:1032900008E0D8F800108B0701D50FA602E0490717
:1032A00001D50EA601251146002408F1240704E0EB
:1032B00000F0ABF830323A55641C50EA0102F7D105
:1032C0002B46324621464046BDE8F041FFF7B6BEE8
:1032D000000000002D0000002B0000002000000076
:1032E00030B4002100F124040CE002F0070505F1E0
:1032F00030054FEAD20242EA4372655401F10101FE
:103300004FEAD30352EA0305EFD10468002310A269
:10331000250708D504F020040C4304D0C469012318
:103320000CA2641EC46130BCFFF788BE10B5044611
:1033300021461068FFF779FE02462046BDE810409E
:103340000023CDE7D21D22F00701D1E90023C7E712
:10335000000000003000000010B5203AC0F00B80E3
:10336000B1E81850203AA0E81850B1E81850A0E889
:103370001850BFF4F5AF5FEA027C24BFB1E81850E3
:10338000A0E8185044BF18C918C0BDE810405FEA53
:10339000827C24BF51F8043B40F8043B08BF7047CF
:1033A000D20728BF31F8023B48BF11F8012B28BFD4
:1033B00020F8023B48BF00F8012B70474FF0000295
:1033C00000B5134694469646203922BFA0E80C501B
:1033D000A0E80C50B1F12001BFF4F7AF090728BFF6
:1033E000A0E80C5048BF0CC05DF804EB890028BF72
:1033F00040F8042B08BF704748BF20F8022B11F09B
:10340000804F18BF00F8012B704730B5B0F10A02A9
:103410004FEA900E71F100034EEA817EB0EB0E0090
:1034200061EB91014FEA101E4EEA017E10EB0E0097
:1034300041EB11114FEA102E4EEA016E10EB0E0017
:1034400041EB11214FEA104E4EEA014E10EB0E00F7
:1034500041EB1141401841F100014FEAD00040EA30
:1034600041704FEAD10110EB80054FEA810444EA34
:10347000907444EB01046D1944EB0404521BA34106
:103480004FF0000348BF0A3200D530BD401C41F167
:10349000000130BD70472DE9FF4F0C461E464FF02E
:1034A000FF378BB0D2E90001DDF860800A908A46D0
:1034B000C1F30A5505B93D46002108464FF000000A
:1034C000BAF1000F00F4400005DA00EB80004FF481
:1034D000400101EA50004FEA9059B9F1010F00DDB7
:1034E000B9460A9850EA4A000ED044F61050A5F2A8
:1034F000FF3545432F14B8F1000F1ED07542291E29
:103500001EDDC9F100021CE0B8F1010F4FF0000010
:1035100001D0302103E0F24305E02154401CB042C9
:10352000FBDB30460022002121540B99C1F80880B2
:10353000C1E900200FB0BDE8F08FBD1B6D1CDEE7B8
:103540004A4600DA694206A800F060FA06AB07CBEB
:1035500003AB07C350460A9900F014FB8DE807003F
:10356000A0F500501F3800900398002D09DD42F2AD
:103570001F014A46084403A90390684600F073FD02
:1035800008E0A0F500504A461F3803A9039068469A
:1035900000F07DFD8DE807000004000C03D04FF023
:1035A000FF30410800E01046B8F1000F03D00022C0
:1035B000009215461FE0751E06D4FFF726FF02F1A4
:1035C000300262556D1EF8D5B3460122084302D081
:1035D00000227F1C04E02078302801D100227F1EC9
:1035E000002A099787D01DE0112D07DAFFF70DFF9C
:1035F000303262556D1C50EA0102F5D108430FD1FB
:103600000021681E05E0235C625C6354491C22545F
:10361000401E8142F7DBAB46A81B401E099001E02B
:10362000009848B1002004F80B000B98099AC0F8E4
:103630000880C0E9002B7DE711264FF000085AE70B
:103640002DE9F04F88460446D21D22F0070191B0C3
:10365000D1E90001CDE90A0100F04FFE02460B98C6
:10366000C00F01D02D2007E02068810701D52B2055
:1036700002E0202101EAC000032A099001D0072AB4
:1036800005DB03464146204600F080F90FE1207833
:10369000800601D5E06900E00620B8F1650F81469B
:1036A00006D0B8F1660F18D0B8F1670F72D132E0CA
:1036B0000020B9F1110F009001DB112301E009F1A5
:1036C00001030AAA01A90CA8FFF7E5FEDDE90C70C9
:1036D000002609F10105834648E001204B46009091
:1036E0004FF000470AAA01A90CA8FFF7D4FEDDE9B4
:1036F0000DB00C995D46002618B909F1010001EBE7
:103700000005B9EB050003D4C0F1FF3609F101054E
:10371000A5EB09002BE0B9F1010F01DA4FF0010927
:103720000020B9F1110F0090484601DD112300E09F
:1037300003460AAA01A90CA8FFF7ADFEDDE90C704B
:103740004D4600268346207800070AD4AB4500DAB0
:103750005D4601A8012D04DD411911F8011C302935
:1037600007D04F4502DA17F1040F04DA0120824630
:1037700010E06D1EEEE7002F02DCED1B3E4403E07F
:10378000781CA84200DD0546A7EB060000F1010AFF
:103790004FF000472078000703D4AA4501DB4FF023
:1037A000FF3A0021B7F1004F0DF143088DF84310A7
:1037B00023D002202B23002F01DA7F422D234FF04C
:1037C0000A0C011EA0F1010000DC4FB197FBFCF1D7
:1037D0000CFB11720F4602F1300208F8012DF0E7E0
:1037E000A8F1010003702188090501D5452100E0F9
:1037F0006521A0F1010800F8011C09980FA9A1EBAF
:10380000080707F1070700B1012000EB050101EBF4
:10381000EA70A1693844A1EB0000A0F10100A061A9
:103820002078C00602D42046FFF7CAF9099830B1C3
:10383000D4E901219047206A00F10100206220783C
:10384000C00620D52046FFF7BBF91CE0002E04DBA4
:10385000B34502DD01A8805D00E03020D4E90121FC
:103860009047206A761C401CBAF1010A20620AD1F6
:1038700000F088F8C0680168405CD4E901219047F5
:10388000206A401C2062281EA5F10105DEDC07E04D
:10389000D4E9012118F8010B9047206A401C2062EE
:1038A000381EA7F10107F3DC2046FFF7A0F902203C
:1038B00011B040E610B5436913B1AFF3008001E0E9
:1038C000FFF774FC012010BD128800F124018284EE
:1038D0000022C2840122EDE711684FF0FF32E9E7D0
:1038E000007B00F08000704770B516460C46054618
:1038F00000F040F8036893F80101012806D0FF2C7E
:103900000FD8185D68B101202C7070BDD3F8070185
:103910003246214603442846BDE8704003F20713AF
:1039200018474FF0FF3070BD754600F0E7F8AE461F
:1039300005006946534620F00700854618B020B5BB
:10394000FCF7A6FCBDE820404FF000064FF0000752
:103950004FF000084FF0000B21F00701AC46ACE837
:10396000C009ACE8C009ACE8C009ACE8C0098D46A4
:103970007047000010B500F005F8001D10BD00BF35
:10398000DD09000000487047740200202DE9F04175
:103990001F46044603260168072A01F4006004DB81
:1039A00008B116A505E016A503E008B115A500E0CD
:1039B00015A521F010002060A069C01EA0610FB104
:1039C000401EA0612046FFF7FBF84FB1D4E901216A
:1039D00038469047206A401C2062C01C206206E0E6
:1039E000206AFAE7D4E9012115F8010B9047761E09
:1039F000F8D22046FFF7FBF8BDE8F0814E414E00BB
:103A00006E616E00494E4600696E66002DE9F04712
:103A1000814616468AB035487844D0E9002380684C
:103A20000092CDE90130314878440C38D0E90223C6
:103A3000006903924FF03702CDE9043041F69B3024
:103A4000014491FBF2F0A0F1800502FB10141B3C35
:103A500002D56442012000E00020DFF890A08046FB
:103A60000027FA44AAF1C60A0DE0E00709D0324661
:103A7000684607EB47010AEB810100F008FB8DE87F
:103A8000070064107F1C002CEFD1184F7F44B43F17
:103A900017E0E80713D007EB04100DF1180A90E8BF
:103AA0000E00AAE80E00C068F04201D198190890F3
:103AB000324606A903A800F0EAFA03AB07C36D106B
:103AC000641C002DE5D132466946B8F1000F03A809
:103AD00002D000F0C8FA01E000F0D9FAC9E900010B
:103AE000C9F808200AB0BDE8F08700006C0A0000A1
:103AF0000446AFF300802046FCF7B5FB0048704752
:103B0000540200204FF0013C50F8042B51F8043BC4
:103B10009A4221D1A2EB0C03934313EACC1317D1A1
:103B200050F8042B51F8043B9A4215D1A2EB0C0338
:103B3000934313EACC130BD150F8042B51F8043BF8
:103B40009A4209D1A2EB0C03934313EACC13DBD0C6
:103B50004FF00000704700BFD01A01BAB1FA81F1EE
:103B600001F0180122FA01F0CB40C1F12001DBB2D3
:103B7000C0B2C01A2CFA01F3D11A914311EAC31151
:103B8000E6D170475FEA400C08BF91F0000F4FEAA2
:103B90008C234FEAC12243EA51514FEA1C5018BF0F
:103BA00000F5F0404FEA300018BF41F000415FEAF5
:103BB0006C5C00F02980BCF1FF3F08BF40F0804002
:103BC0007047130C06BF12044FF0100C4FF0000C9E
:103BD000130E04BF12020CF1080C130F04BF1201E4
:103BE0000CF1040C930F04BF92000CF1020CD30FE4
:103BF00004BF52000CF1010C11464FF00002A0F17D
:103C00001F00A0EB0C00704711F0004F08BF704779
:103C100031F000413FF4D5AF0B0C06BF09044FF063
:103C2000100C4FF0000C0B0E04BF09020CF1080C35
:103C30000B0F04BF09010CF1040C8B0F04BF8900AA
:103C40000CF1020CCB0F04BF49000CF1010CCCF1BC
:103C50002003A0EB0C0022FA03F302FA0CF241EA73
:103C6000030100F10100704720F07F4C80EA03005F
:103C700023F07F47ACEB070303F57C5300F00040D3
:103C800003F1FF032DE980494FEA154B09B44FEAD0
:103C9000144325EA0B4E24EA03480FF2042606EBF0
:103CA000132749083E785FEA320203FB0667C7F52F
:103CB000000707FB06F64FEA54374FEAD64606F1EF
:103CC000020607FB066CCCF1005C4FEA1C472CEAAD
:103CD000074C07FB06F40CFB06F504EB15464FEA10
:103CE000961634BF00204FF000404FEAD13706FB54
:103CF00007FC4FEA1C4C0CFB0BF7D21B03FB0CF729
:103D000061EB07010CFB0EF7B0EB074072EB1742BB
:103D10000CFB08F734BFA2EB0742B2EB074261EBA2
:103D200017414FEA0C444FEA910706FB07FC4FEAA4
:103D30001C4C0CFB0BF7B0EBC74072EB573203FB8C
:103D40000CF734BFA2EBC742B2EBC74261EB57316D
:103D50000CFB0EF7B0EBC70072EB57720CFB08F7C9
:103D600034BFA2EBC702B2EBC70261EB5771039FEE
:103D70004FEA816141EA921104EBCC044FEAD1375A
:103D80004FEA826206FB07FC42EA90124FEA80602B
:103D90004FEA1C4C0CFB0BF7D21B03FB0CF761EB3F
:103DA00007010CFB0EF7B0EB074072EB17420CFB60
:103DB00008F734BFA2EB0742B2EB074261EB1741B1
:103DC0004FEA8C554FEA910704EB9C2406FB07FC55
:103DD0004FEA1C4C0CFB0BF7B0EBC74072EB5732B1
:103DE00003FB0CF734BFA2EBC742B2EBC74261EB57
:103DF00057310CFB0EF7B0EBC70072EB57720CFBA0
:103E000008F734BFA2EBC702B2EBC70261EB5771F0
:103E100015EB4C254FEA816141EA92114FEA82622B
:103E20004FEAD13742EA901206FB07FC44F1000446
:103E30004FEA80604FEA1C4C0CFB0BF7D21B03FBD4
:103E40000CF761EB07010CFB0EF7B0EB074072EBD0
:103E500017420CFB08F734BFA2EB0742B2EB074254
:103E600061EB174115EB1C154FEA813141EA924194
:103E70004FEA823242EA90424FEA80304FEA0C76B3
:103E800044F1000448EA03434EEA0B484FF0000EA9
:103E9000B2EB080C71EB030724BF624639464EEBC8
:103EA0000E0E4FF0000B0018524149414BEB0B0B2B
:103EB000B2EB080C71EB03077BF1000B24BF6246E9
:103EC00039464EEB0E0E4FF0000B0018524149419F
:103ED0004BEB0B0BB2EB080C71EB03077BF1000B08
:103EE00024BF624639464EEB0E0E51EA020718BF58
:103EF00046F0010616EB0E7655F1000254F1000172
:103F000003D5BDE88901BDE80088BDE88901BDE8A9
:103F10000048B619524141EB0101A3F1010370477A
:103F200080807F7E7D7C7B7A7978777676757473F6
:103F3000727171706F6E6E6D6C6C6B6A6A696868B5
:103F4000676666656464636362616160605F5F5E4B
:103F50005E5D5D5C5C5B5B5A5A59595858575756C1
:103F60005655555554545353525252515150505026
:103F70004F4F4F4E4E4D4D4D4C4C4C4B4B4B4A4A78
:103F80004A494949484848474747474646464545BC
:103F900045444444444343434342424242414141F5
:103FA000002B26D4770021D01CB54FEA370703B485
:103FB0004FF010004FF010014FF000000FBCBDE8B3
:103FC00010400BF1010BBBF1010F08BF5FEA1707AF
:103FD00022BF12F1010211F101014FF0004143F142
:103FE000000300F0004043EA00007047F9D357088F
:103FF000DAE746EA064613F1400F4FEA16461FDDA0
:1040000013F1200FDFBF16430A46002120335B4225
:10401000C8D0C3F1200746EA064602FA07F74FEA7E
:10402000164646EA0706C3F1200722FA03F201FA10
:1040300007F721FA03F14FF0000342EA0702B1E764
:1040400046EA020646EA06464FEA164646EA0106F0
:10405000BCBF46EA0646360C4FF000034FF00002A4
:104060004FF000019EE72DE9C048934630B491E837
:10407000380007C831EA400C48BF34EA430C03D586
:10408000FFF7F2FDFFF78CFFF0BCBDE800882DE9DB
:10409000C048934630B491E8380007C810F0804F0C
:1040A00008BF13F0804F03D100F005F8FFF778FF49
:1040B000F0BCBDE8008820F07F4780EA030023F0D1
:1040C0007F4C07EB0C03A3F57C5300F00040A3F1F9
:1040D000FE0392F0000F00F0B38095F0000F00F0A7
:1040E00077802DE901494FEA11404FEA144621EA51
:1040F000004800FB06FC24EA064708FB06F607FB1F
:1041000008F800FB07F718EB06484CEB164C4FEA93
:10411000124B18EB07484FEA15464CEB174022EAC2
:104120000B4E0BFB06FC25EA06470EFB06F607FBCB
:104130000EFE0BFB07F71EEB064E4CEB164C4FF03A
:1041400000061EEB074E4CEB174B18EB0B0840F12B
:10415000000018EB0E0B58EB000840F100008F1A1E
:104160004FF000013CBFC943661B14BFB5EB040C04
:1041700000213CBFC943F61B4FEA17444EEA8E0E9E
:1041800027EA04454FEA1C4704FB07622CEA074C68
:1041900005FB07F70CFB05F604FB0CFC16EB0746CA
:1041A00042EB174216EB0C4642EB1C421BEB060699
:1041B00058EB0202414146EA9E0601D5BDE801895D
:1041C000B619524141EB0101A3F10103BDE8018998
:1041D0004FEA14454FEA114724EA054621EA074C05
:1041E00005FB07F406FB07F70CFB06F105FB0CFCCF
:1041F00011EB074144EB17444FEA124711EB0C4116
:1042000044EB1C4422EA074C05FB07F206FB07F7C8
:104210000CFB06F605FB0CFC16EB074642EB1742BF
:1042200016EB0C4642EB1C456A1854F1000148BFDE
:104230007047B619524141EB0101A3F101037047E8
:1042400095F0000F37D04FEA11424FEA144721EAA8
:10425000024624EA074C02FB07F106FB07F70CFBBA
:1042600006F402FB0CFC14EB074441EB17414FEA48
:10427000154714EB0C4441EB1C4125EA074C02FBAB
:1042800007F506FB07F70CFB06F602FB0CFC16EB2A
:10429000074645EB174516EB0C4645EB1C42121939
:1042A00051F1000148BF7047B619524141EB01017D
:1042B000A3F1010370474FEA14454FEA114724EA7E
:1042C000054621EA074C05FB07F106FB07F70CFB47
:1042D00006F24FF0000605FB0CFC12EB074241EB27
:1042E000174112EB0C4251EB1C4148BF704792182A
:1042F00041EB0101A3F101037047490050EAC120DD
:1043000018BF04204A0D18BF40F0010040F2FF72B0
:10431000B2EB515F08BF40F00200012808BF052042
:10432000704730380A2801D20120704700207047BA
:1043300010B500290AD00878002807D0054878442D
:10434000FFF7E0FB002801D0002010BD02487844B0
:1043500010BD000002020000FA01000010B50029A3
:104360000AD00878002807D005487844FFF7CAFB30
:10437000002801D0002010BD0248784410BD000084
:10438000F2010000EA010000FFF75AB9000303063A
:1043900001040602050003051F1C1F1E1F1E1F1F10
:1043A0001E1F1E1F4A616E4665624D61724170722A
:1043B0004D61794A756E4A756C4175675365704FEA
:1043C00063744E6F7644656330313233343536373B
:1043D0003839414243444546403058003031323349
:1043E0003435363738396162636465664030780049
:1043F00004000008000000000000000200010000AE
:10440000100000000000000000000000024000005A
:10441000000000A00000000005400000000000C8EF
:10442000000000000C4000000000409C0000000064
:10443000194000000020BCBE000000003440000015
:10444000BFC91B8E00000004B5400000504BCFD008
:104450006607E2CF010000006C4100003E8251AAD5
:10446000DFEEA73401000000D9420000DCB5A0E275
:104470003A301F97FFFFFFFFB4450000FD25A0C89D
:10448000E9A3C14FFFFFFFFFFF3F000000000080D6
:1044900000000000FF3F000000000080000000005E
:1044A0003F006465630069640068656C70006C6956
:1044B00073740068657800766F6964207772697438
:1044C000655F616464722875333220616464722CA4
:1044D0007533322076616C29007533322072656144
:1044E000645F616464722875333220616464722988
:1044F00000766F69642064656C61795F6D732875FF
:104500003136206E6D732900766F69642064656CA6
:1045100061795F757328753332206E7573290000D9
:104520006C4600080000002050010000280100082F
:10453000B84600085001002068030000840100080C
:104540001C00000043000000F8FFFFFF0C0000000B
:104550000E0000000F0000002E00000010010000FF
:1045600043000000F8FFFFFF004040404040404053
:104570004040414141414140404040404040404036
:1045800040404040404040404005020202020202DA
:104590000202020202020202022020202020202029
:1045A000202020020202020202029090909090903D
:1045B00010101010101010101010101010101010FB
:1045C000101010100202020202028888888888886F
:1045D000080808080808080808080808080808085B
:1045E0000808080802020202400000000000000063
:1045F00000000000000000000000000000000000BB
:1046000000000000000000000000000000000000AA
:10461000000000000000000000000000000000009A
:10462000000000000000000000000000000000008A
:10463000000000000000000000000000000000007A
:10464000000000000000000000000000000000006A
:10465000000000000000000000000000000000005A
:10466000000000000000000000000000C1031E0167
:104670007F13A0441B08A9041AAE041AA6041AB397
:10468000041AA2041301261B08D9081A07081AB72E
:1046900008139B031B08F1081AD1081308452308C7
:1046A000441420F92114081D221B08C704138F2568
:0846B0001B08046F01D4000097
:04000005080000ED02
:00000001FF
